:020000040000FA
:100000000C94110B0C94390B0C94390B0C94390B88
:100010000C94390B0C94390B0C94390B0C94390B50
:100020000C94390B0C94390B0C94390B0C94390B40
:100030000C94390B0C94390B0C94390B0C94390B30
:100040000C94E01C0C94390B0C94390B0C94390B68
:100050000C94390B0C94390B0C94390B0C94390B10
:100060000C942A1D0C94390B0000000000000000C5
:10007000000000C0071E0000E00F1E00F8310C3326
:1000800000003018330C0030181E1FE031189E039A
:10009000E031188001003018800000B0198001F8AC
:1000A00091198003F89019001F009019000CE0903E
:1000B000190000E09119000000901900000090194B
:1000C0000000F891190000F8911900000090190043
:1000D000000090190000E091190000E09019000064
:1000E0000090190000F090190000F8991900000024
:1000F0009C310000008C63000000C66700000066B1
:100100006E000000264C000000664C000000E66611
:10011000000000CC630000000C3000000018380024
:100120000000F01F000000E00700000000000000D9
:1001300000000000000000000000000003000000BC
:1001400000030000000003000000000300000000A6
:100150000300006000033800E000001C00C0010044
:100160001E008003070E0000E13F020000F87F0040
:100170000000FCFF000000FCFF010000FE7F00000B
:1001800000FE3F200000FF0FFE033FFF81FF0F3FF7
:100190007FC0FF1F003FFCFF3F001EFFFF3F0080AE
:1001A000FFFF7F00C0FFFF7F00FCFFFFFF00FFFF9E
:1001B000FFFF80FFFFFFFF80FFFFFFFFC0FFFFFF8C
:1001C000FFC0FFFFFFFFC0FFFFFF7FC0FFFFFF7FFC
:1001D000C0FFFFFF7FC0FFFFFF3F80FFFFFF1F80CB
:1001E000FFFFFF0F00FEFFFF0700FCFFFF00000006
:1001F000000000000000000000001F000000C07FA1
:10020000000000E0FF000000E0E1010000E0C001AC
:1002100000C07FC4FF00E07FCCFF00E03F84FF0010
:10022000E00000C001E00000C001E0FFFFFF01E0CE
:10023000FFFFFF01E0FFFFFF01E07100E001E0715F
:1002400000F001E0FFFFFF01E0FFFFFF01E0FFFF23
:10025000FF01E07100E001E07100F000E0FFFF7FCE
:100260000CE0FFFF3F1EE0FFFF1F1FE0FFC38F0FEB
:10027000E0FF81C707E0FF0CE307E07F1EF003E02B
:100280007F3CF001E07F7CF800E0FFF87C00E0FFBD
:10029000F13F00E0FFE31F00E0FFC70F00E0FF8F2A
:1002A0000700C0FF1F030000000000000000000066
:1002B000000000000000000000000000000000003E
:1002C000000000000000000000000000000000002E
:1002D000000000000000000000000000000000001E
:1002E0000000000000000000000000000000007E90
:1002F00000000000180000000018000000001800B6
:10030000000000FF000000C0E7030000F8301F00FD
:10031000007CF03E000030F00C0000187018000067
:1003200018301800001810180000180018000018E5
:100330000018000018001800001800180000300015
:100340000C000030000C00006000060000C08103BB
:10035000000080FF010000007E000000000000009F
:10036000000000000000000000000000000000008D
:10037000000000000000000000000000000000007D
:10038000000000000000000000000000000000006D
:1003900000000000000000000018000000003C0009
:1003A0000000003C000000003C00000000FF0000D6
:1003B00000C0FF030000E0FF070000F0FF0F000097
:1003C000F8FF1F0000F8FF1F0000F8FF1F0000FCEF
:1003D000FF3F0000FCFF3F0000FCFF3F0000FCFF70
:1003E0003F0000FCFF3F0000FCFF3F0000FCFF3F20
:1003F0000000FCFF3F0000FCFF3F0000FCFF3F004F
:1004000000FCFF3F0000FCFF3F0000FCFF3F00003E
:10041000FEFF7F0000FFFFFF0080FFFFFF0180FF66
:10042000FFFF0100FFFFFF00000000000000007E52
:10043000000000007E000000003C000000001800EA
:1004400000000000000000000000000000000000AC
:100450000000000000000000000080838303008093
:1004600083830300B0BBBB1B00B8BBBB3B00BCBB62
:10047000BB7B00BCBBBB7B007C7B7B7B00FCFEFEB4
:100480007E00FCFFFF7F00FCFFFF7F00FCFFFF7F83
:1004900000FCFFFF7F000C000060000C000060000B
:1004A0000C8FE763000CCFE763000C8FE763000C51
:1004B000000040000C000020000C8F07FE030CCF52
:1004C0000703060C8F87010C0C00C030180C00408D
:1004D00030100C8F6730300CCF6730200CCF27F0F6
:1004E000210C8623E0231C006000203C00400030EB
:1004F000F8FF5F0010E0FF9F0018000080010C0073
:1005000000000607000000FC0100000000000000E1
:1005100000000000000000000000000000000000DB
:10052000000000000000000000F03F00000000C0DC
:1005300001000008000600C008701800A00888200C
:1005400000980888200086C9CB490001095842005C
:1005500081C842020081084042008100804100E1E0
:10056000F00760008100E070008700007C00FF0061
:10057000007F001F00C07F002700C067C06000CC64
:100580006B408000C66D208081C76D1080C7C76D2D
:100590001000FFC7710801FFC33F8401FFC03F4443
:1005A000017FC01F220101C00F220101C0034401CD
:1005B000010000880101000010010100002001017C
:1005C000000020010100002001010000C001010025
:1005D000000000000000000000000000000000001B
:1005E0001F1C1F1E1F1E1F1F1E1F1E000000002499
:1005F0000027002A0000000000250028002B000032
:10060000000000230026002900040404040404045C
:1006100004020202020202030303030303010204B1
:100620000810204080010204081020010204081074
:100630002000000008000201000003040700000081
:1006400000000000005F0003030505040506161402
:10065000FDFC0EFC0EFE026D05BA080B20060060C4
:100660002C01210FC4253423391C2C2265C92122D9
:10067000012209A5644621E14500231B8B61642901
:10068000114BC412D961729849C412D96172984948
:10069000C412B14408242149A65B1987846B92488F
:1006A00029520A5582B643E81033464AA14AA81295
:1006B0009195E39020002529EEE17B35938A264130
:1006C0005948280B456511A9287D2487C6C62251A3
:1006D00034240B8A64C1982CA6148C4EE330002677
:1006E00024D0258C4B078AE420991C2493832672FE
:1006F000581D3AABD984135270561D52A7B4DA2153
:10070000741B012707A2642E7118281105A2332734
:10071000128D442399DE66B2995000291005A23348
:100720002194CD64337D1A89466A002A10E7E0459A
:10073000354A9A44442349649434022B154A215C77
:100740002987C8217288F07030CA2172881C22045F
:100750002C0BE4602B23394446D9002D0765E03487
:10076000F1102E0A84202C23394424002F0FC62197
:100770003CA918540C2A0615838A003013C9255C3D
:10078000379C8C6492997F9BC84493E10C00310B99
:10079000C7295C271C15F79F0E3215C9255C471326
:1007A0004D66B6896C3C1D4FA762D5C3A1003317B7
:1007B000C9255C47134D66B6896C2C9C83E413995C
:1007C000DB44342B013416C9255C1F174F1923B3A2
:1007D000D028368A4D829383743C2D3518C9255C08
:1007E00073889CE29038240EB1C5E6E389CC6D2273
:1007F0009A95003616C9255C575A91D924E3C988C1
:10080000B2E66D229B8C8433003711C9255CF15010
:100810009E8AE562B97875BC11003815C9255C3728
:100820009449A4D4E2456434858E556A4D46033913
:1008300017C9255C37144D669299B7C98434194F8E
:100840006436C96854033A0D242534233944C492CC
:100850004344023B0F846533233944C49243649478
:100860000D003C114A215C0F111339D32174081D6E
:100870004287083D0BC9A45CF140473C1C083E126E
:100880004A215C2187D02174081D422672964300BC
:100890003F12C921545712DD6C13D9587724319572
:1008A0002C044027CF21847B1ECBE4A090AC2411E4
:1008B00029916422924C449189246A2289D2442449
:1008C0009A10E5A0D8587C08024120CE1D741F075D
:1008D000CB8173201D1499834272486C1E1B47A75D
:1008E000076178181FC927D402421ECC2174719861
:1008F000CD48C3D170341CCD6687E0D274329D4C94
:1009000027D3C970729001431DCC2174590AB18C50
:1009100025E33A840EA183E6A039680E89CC23E34F
:10092000184D5A03441FCE218471980E69E3D17883
:10093000349FCC27F3C97C329FCC27E3D178342471
:100940001D8600451FCB216C71A00C2753C92C14A8
:1009500099852223E171249C0567A1C83832950C42
:100960000F07461ECB216C71A00C2753C92C14997C
:10097000852223E171249C0567C139640E995B01CE
:100980004721CD217C598A914863D158328744E66A
:1009900090C81C36874D0FE1D174349D91A8A508ED
:1009A00000481ECE218451AC8C47E3D178341E8D93
:1009B0004787D278341E8D47E3D178349E140B4993
:1009C0000AC5254C5119ED7F294A13CA1D645B9E47
:1009D000EF936C429A9026C2916848044B1ECE2138
:1009E00084512B4D8543E94C3C924FE4103BE43E4F
:1009F000218FA833E29036A5D40C4C10CA21645143
:100A00009EEFAF91696428991D0C4D2DD1219C61F9
:100A10002E9169555A641899856691596816998579
:100A200046A1596C129AC526A1598C360BCE66C1C7
:100A3000D968189CD462054E21CE218441AD5067FF
:100A4000D42035584CA10543A4608C120C16A3C4C5
:100A500028313C1B8BCA21004F1DCE21846926D131
:100A6000C6A3F1640EB143EC103BC40EB1439647EC
:100A7000E319896C04501ECC21747110CE4843CA0E
:100A80009032A40C2933D2213807CD4173D01C34C5
:100A900087D40151284E22836926D1C6A3F1640E62
:100AA000B143EC103BC40EB1D026A39168269951F6
:100AB000CA76A81C3A8983EAB01100521FCD21845E
:100AC00071A00D49D3D174341D0D6787E86C381BB4
:100AD000CE68C3D970369C1827005316CA216447C4
:100AE00009AD0C25D308D97A355BCBD5D324540274
:100AF000541CCB216C7130ADCD6433D92C3887CCEC
:100B00002173C81C3287CC2173C8BC06551ECE2168
:100B10008451AC8C47F3D83C368FCD63F3D83C3648
:100B20008FCD63F3D83C38941B015622CF1D7461DE
:100B3000AC9067F320353C0D4FE3B3386416074D96
:100B4000E2B0491C3887CEC171781C005730D41DE3
:100B50009C61315568C4D9701AA4D1C2335A784601
:100B60000B5322943864129AC42193D0240EA1D13D
:100B700061C3396C380786E3D0701800581FCF2145
:100B80008C63AA11A734F9480EB1C3E8503AAC0EF1
:100B9000B3434464E174481B538A06591FCD217C3A
:100BA00061A35065D3204D3A0B53E2903A680E9BF7
:100BB000C3E6B0396C0E9B436E005A19CC216CF120
:100BC000102E4FC294289D0E9943E8AC1172645CBC
:100BD0003E1C025B0A04A63361D2FF13015C12C8FB
:100BE000214C21968BE562B9582E968BE562015D0A
:100BF0000A04A23341D2FF93015E0E08A14D27964D
:100C00001269222D42A2005F0749604BF140600843
:100C100085A43E215B1461122A215C739A4D846382
:100C2000DA646D329B8C9806621FCC1D644107CD3F
:100C30004173D01C34074D88B4D174329D4C27D3F6
:100C4000C974421B496A00630F292154571A19CBF2
:100C50005B2333190900641DCC216C4F07CD417310
:100C6000D01C34A48C6694E9643A994EA693E96842
:100C700046A41065122A215C471C4D86C6C3413E1E
:100C80008E0C652500660EC8213C4793EC3AB44DA6
:100C9000F7B106671EEB215B0F924346C6D14C2885
:100CA00013CA4643A31C74081E22D289583294DD0D
:100CB00000681ECC216C4107CD4173D01C34074D18
:100CC0006A24D270341C0D47C3D170349C940A69D5
:100CD0000CC52134335A0792F64B016A0F4716337D
:100CE000B91D8DB83F5A2C2212006B1DCC216C41CE
:100CF00007CD4173D01C34078D4A33E1283C115F86
:100D000027C4116D46A9186C0AC5213441DAFFA524
:100D1000006D183321A441A9D84825D27069B83490
:100D20005C1A2E0D97862BA5066E152C216C41A9F9
:100D30009148C3D170341C0D47C3D170522A6F0F34
:100D40002B2164579C4DA6BE4E66C31A00701CAC86
:100D50001D633122D246D3C974329D4C27D3096D0D
:100D60003421CE4173D01C5207711CAC2163471251
:100D7000CD28D3C974329D4C27D3D18C489983E6B2
:100D8000A039680E29720F28214C4111512423C922
:100D900074C71A0073122921544509C924C388F164
:100DA0006A2D4A2225007411A72144178E0A67A6CE
:100DB000E19E22A310050075152C216C51220D47D0
:100DC000C3D170341C0D47C3115B850076142A1DF6
:100DD0004C519A0C43C3D828388A92E97288100083
:100DE000771B301D7C51294D66C3D06C181B918236
:100DF0002352944426D1857288500878122B21649E
:100E000061619351A4F579554293512806791BAB42
:100E10002163519B4C43D3D82C388B4EC293F81C82
:100E200032074565D1497C0E7A0E29215471A0D52F
:100E300088DC8AC403017B0E05A2332712EDA428A7
:100E40001BED26147C07C2315CF1037D0F05A23334
:100E500021948DB60945A23DA9017E0B6A2465B592
:100E600072888C460000000004FFFF00005F000253
:100E7000020303030404050700FF06FF0600010A3E
:100E800002160307200500BD012106B1B119292270
:100E9000075BB7495600230A2DB1AB86AA86AA0084
:100EA00024092DB15BF54E6901250834B1C9B1772C
:100EB0000026092CB18B29563105270599B7192829
:100EC0000772B153CD00290872B189A952002A07CF
:100ED0006BB149D56A2B0A2DB1CD280E9951042C3E
:100EE000075BAF5325002D060CB519012E0652B134
:100EF00019012F0724B38F6D00300873B1AB5C1557
:100F000000310773B14BB235320934B15331C77276
:100F100004330A34B1193969249302340A34B18D87
:100F2000AA1A312700350A34B1197A2399140036E8
:100F30000A34B1537945991400370A34B11939E6A6
:100F4000982300380A34B15331A9289302390A345E
:100F5000B15351A69D14003A076AB11971043B08B8
:100F600033AFB3912A013C076BB14D75013D081CAD
:100F7000B319198D003E076BB1C955093F0973B10B
:100F80006BA60C1300400934B15351DD48014109EF
:100F900034B153518E2903420A34B15971A4284700
:100FA00002430934B15351974901440934B159D12D
:100FB000391200450934B1197AE53C02460834B1CA
:100FC000197AE51A470934B15351A79906480834EC
:100FD000B189724C33490773B159B1354A0834B1FC
:100FE0006FCBA4004B0A34B1892A4999CA004C0737
:100FF00034B1C9DD234D0934B189E38866004E0858
:1010000034B1896BA9334F0934B153D199140050CD
:101010000A34B159518E943300510A3CAF53D15C1C
:1010200049A300520934B159518ED40C530A34B13A
:10103000533165542605540773B159B10B55083423
:10104000B1899E4901560934B189CE24150057094A
:1010500034B189E6386200580A34B18932491565DD
:1010600000590873B1495659015A0934B11939B6B2
:1010700047005B0773B119B1395C0924B3C928A3D0
:101080008C025D0773B199CD115E0553B96B5F0694
:101090000CB11901600652B98901610824B11B51D4
:1010A000A902620A34B1C97945391200630623B135
:1010B0009B59640834B1AF469469650824B15369FB
:1010C0006405660934B1ADCA99230067092CAF1BCA
:1010D00031A98C06680834B1C9794533690873B100
:1010E000CB4856036A097BAFCDB05415006B093469
:1010F000B1C95592A90C6C0773B1915D036D0824B9
:10110000B1496948196E0724B159D10C6F0824B14F
:101110005351260570092CAF59518E940171082C3A
:10112000AF1B51A61D720824B159516700730824E2
:10113000B11B1A0D05740934B1CB71E68C04750727
:1011400024B189661A760763B1495605770724B139
:1011500089721C780824B18949AA1879092CAF89A9
:10116000329525007A0824B119B11C017B0873B1AE
:101170004D49D6017C05B1B1397D0973B1C951C55D
:1011800014017E0714B94B2A0100000004FFFF0080
:10119000005F00020204040304050C0BFFFE08FEBE
:1011A00008FE016A032C0471200500CC0921088285
:1011B000C4C991F2082207336D4BB2022310874451
:1011C0007CCAA81C3365548E9932AA012410A53C10
:1011D0006B1E2AA938E28849A5A1230025158AC4D7
:1011E0009DD44A655523554995544649E5A87256FC
:1011F00000261188C4AC862A2395A186494B73A486
:10120000A5002706316DCA00280BA4B47A8C4ABA0F
:10121000754601290AA4B44A46D974C91A2A09553F
:101220005C6B55AD66042B0B554C6B4671C88C221C
:10123000002C0742B4C9480A2D06135CCA002E06CA
:1012400022C4C9082F0A84C47A99638E3903300EE8
:101250008544DB52238D34D24823A90531098445C6
:101260009B9ABE4600320C8544DB52236929F33831
:1012700002330E8544DB5223498D461A492D003432
:101280000B8544EB95549A636439350D8544CB2B1B
:10129000A391D14823A905360E8544DB52238FA4A0
:1012A000461A492D00370A8444CBA1638E2E00389C
:1012B0000E8544DB5223A9A5461A492D00390E8517
:1012C00044DB52238DA4461E492D003A0752C4C95F
:1012D00088233B0972B4C9882329003C0956CC3BBA
:1012E0009236D6583D083554CBD070083E0A56CCBD
:1012F0008BC61A4B1B013F0A8544DBB2A5CCB4094F
:101300004012A93CFD465A6698E248FE5432939A30
:101310001E11411289433CCAD4C61B468DA21E230E
:1013200066A4E608420E8744CC694935A425951C7D
:10133000430143108744ECAA47461B6AA8518DE23B
:101340004800440F88C4CCADA3565A69A5954E6396
:1013500002450E86C4CB25938A23AA28931C2346D4
:101360000E86C4CB25934C2A8EA8A21E11470E8749
:1013700044ECAA47461BCAA155962B48128944CD76
:10138000482369A9E518514B2DB51A690449098408
:10139000C4CA48D2D7084A0C86C4EBC81A69E42BE1
:1013A000CA094B1189C4CC88769619A90C87465274
:1013B0005B230E4C0F86C4CBC81A69A4914632C970
:1013C00031024D158B44CEC823ED9954924925998D
:1013D0005492D18CD652234E1188C48C5E3ACE38AA
:1013E000524C23C699D54E004F0E8744ECAEF4C83C
:1013F000238FAC729E00500F8744CC694925D5904D
:101400001A6A3432005113983CEC46396AA5955655
:101410002349A5D148192A00520D88C4CC2D3DF38B
:10142000D0D235D200530D86C4DB39F2D068E81132
:10143000D702540E86C4CB915C51238D34D2230144
:10144000551088C4CC484B471D75D451479D47045F
:10145000561188C4CC484B479D55462A2395A1C6B2
:101460001A57158B44CE486A4919CDA8928A2AA9E1
:10147000BC36D21A6909581088C4CC484BC795D1DC
:10148000C61BA599D511591188C4CC484B679591B5
:10149000CA50638D351C115A0B86C4CB91F57CEB79
:1014A00031025B08A334CA50FE1A5C0C84C44ACED5
:1014B00028679433CA015D08A334CAF2D7105E0AC4
:1014C00065546B4679A65A075F061634CB01600651
:1014D00023748A14610954C4CA56238D01620E868E
:1014E000C48B461A69641D71C4B50063095544DB99
:1014F000925BA605640E86C4FB461AA931E28823D6
:101500002D0365095544DB52E34623660C85C4EA86
:1015100052498EA8CD9100670D86343B8A5339F726
:10152000D8632400680E86C48B461A69641D71C492
:101530001105690A84C49AD470BA46006A09A3B432
:101540009ABDBC46026B0E86448B461A69648D3880
:10155000A2B2066C0884C4CAF46B046D0D5AC48D23
:1015600092EA11E5887244036E0B56C48B52471CF5
:101570007144016F0C56C4DB4872C411D548007029
:101580000D76B48B52471C718CA4D106710E77B4C2
:10159000DB505249A5A6D250A311720954C48A1A2D
:1015A000239A00730954C4DA90230E057409734416
:1015B0005A52439902750B56C48B1C71C491960103
:1015C000760B56C4CBB2A2CA1A4900770C5944CD47
:1015D000F28A4A65A59109780A56C4CBB2B24ED6B2
:1015E00000790D76B4CBB2A2CA1AC9AD11007A083F
:1015F0005544CB25CD317B0AA4B4AA9296966E01B0
:101600007C068146CB217D0AA4B48A96B6922E0927
:101610007E0726DCDB520B00000004FFFF00000009
:10162000491E11241FBECFEFD8E0DEBFCDBF25E09D
:10163000A4E2B3E001C01D92A437B207E1F713E0C2
:10164000A0E0B1E0ECE4F1E502C005900D92A43217
:10165000B107D9F71BE0C1E1DBE004C02197FE012F
:101660000E94E925C031D107C9F70E940B1F0C94D5
:10167000A4280C940000662329F06A3019F0862F04
:1016800090E008958FEF9FEF0895AF92BF92CF92B1
:10169000DF92EF92FF920F93CF93DF93EC01DA0189
:1016A0007901942F9770E1E0F0E09F01092E01C0CD
:1016B000220F0A94EAF7522F6E018AE8C80ED11C55
:1016C000F601808140E0823018F4422F813049F1E8
:1016D0005D01F8EFAF22E8ADF9AD28813981D9017C
:1016E00050968C918A9D90018B9D300D1124620F34
:1016F000731FDF01A60FB71F01111AC0EA0EFB1EF0
:101700008C91842B85278D93AE15BF05C9F7DF918A
:10171000CF910F91FF90EF90DF90CF90BF90AF905F
:10172000089550E0D5CF440F550FE114F10479F33B
:101730003C91342B35273C939F5F9770E1E0EE1A84
:10174000F1089111F0CF2CAD3DADA20FB31FF60102
:101750008081823028F4813009F051E041E0E5CF0A
:1017600051E0E3CF80E0089590E080E00895EF92AB
:10177000FF920F931F93CF93DF9393E1899FE00133
:101780001124C45DDB4F6A8984E0689FF001112455
:10179000E05FFB4FE280F38000811181E889F989E5
:1017A00080E194E0099594E0899FF0011124E05FC5
:1017B000FB4F42815381208131818A8BC901801B7B
:1017C000910B9A012E193F093B832A835B874A8735
:1017D000F986E8861D870C8797FD19C041E050E027
:1017E000598348831F861E86FC01B9010E94B325D8
:1017F0007D836C83CF01B9010E94B3259F838E83C3
:10180000DF91CF911F910F91FF90EF9008954FEFCF
:101810005FEF59834883EE27FF27E81BF90B41E070
:1018200050E0421B530B5F874E87DFCFEF92FF9252
:101830000F931F93CF93DF938C0183E1689FF00197
:101840001124E05FFB4F86A57F019CE2E90EF11CAD
:10185000EF01AE96D701ED91FC91682F80E194E005
:101860000995B4E08B9FF0011124E05FFB4F2281CA
:1018700033812017310711F48883ECCFDF91CF91AA
:101880001F910F91FF90EF9008956F5FFC01808D85
:10189000681708F060E0862F08956150FC01808D84
:1018A000681710F06FEF680F862F089580936C050E
:1018B00008959B01DC011896ED91FC9141E067E1F0
:1018C0000994833081F028F4813099F08230A9F0B6
:1018D00008958730A9F08830C9F08430B1F4809140
:1018E00080008F7D03C0809180008F77809380007F
:1018F000089584B58F7784BD089584B58F7DFBCF1F
:101900008091B0008F778093B00008958091B000EF
:101910008F7DF9CFCF93DF93282F30E0F901EF5C73
:10192000F94F8491F901E35EF94FD491F901E75F32
:10193000F94FC491CC23A1F081110E94610CEC2FCE
:10194000F0E0EE0FFF1FE150FA4FA591B491EC913A
:10195000ED2381E090E009F480E0DF91CF910895DC
:1019600080E090E0FACF1F93CF93DF93282F30E0F1
:10197000F901EF5CF94F8491F901E35EF94FD491DD
:10198000F901E75FF94FC491CC23A9F0162F81111B
:101990000E94610CEC2FF0E0EE0FFF1FEB50FA4FAE
:1019A000A591B4918FB7F894EC91111108C0D0951E
:1019B000DE23DC938FBFDF91CF911F910895DE2B43
:1019C000F8CFCF93DF9390E0FC01E35EF94F2491D1
:1019D000875F994FFC0184918823D1F090E0880FB4
:1019E000991FFC01E551FA4FA591B491FC01EB5010
:1019F000FA4FC591D491623071F49FB7F8943C913D
:101A0000822F809583238C93E8812E2B28839FBF80
:101A1000DF91CF9108958FB7F894EC912E2B2C93F2
:101A20008FBFF6CF3FB7F8948091BC039091BD0370
:101A3000A091BE03B091BF0326B5A89B05C02F3F60
:101A400019F00196A11DB11D3FBFBA2FA92F982FE4
:101A50008827BC01CD01620F711D811D911D42E0DF
:101A6000660F771F881F991F4A95D1F708958F92A7
:101A70009F92AF92BF92CF92DF92EF92FF926B0153
:101A80007C010E94120D4B015C01C114D104E104E0
:101A9000F104B9F00E94120D681979098A099B09AD
:101AA000683E73408105910580F321E0C21AD10898
:101AB000E108F10888EE880E83E0981EA11CB11C95
:101AC000E4CFFF90EF90DF90CF90BF90AF909F90CA
:101AD0008F900895DC011A96ED91FC9130E020E0A2
:101AE0000994DC011696ED91FC9130E020E040E095
:101AF00069E10994DC011696ED91FC9130E020E05B
:101B000040E068E109949A01DC011696ED91FC91A0
:101B1000462F67E10994EF92FF920F931F93CF93A3
:101B2000DF931F92CDB7DEB77C018B01D8016C919A
:101B3000673129F150F46531A0F40F90DF91CF9116
:101B40001F910F91FF90EF9008956A3118F16E3F49
:101B5000A1F7F8014181498369E2C7010E946A0D3A
:101B60000BC0F80141814983D7011696ED91FC9194
:101B700030E020E0C70109950E5F1F4FD7CFF80175
:101B800081818983AE014F5F5F4F61E0C7010E9491
:101B9000830DF2CF0F5F1F4FD7011696ED91FC9189
:101BA00030E020E040E0C7010995C0CF462FDC01BE
:101BB0001696ED91FC9130E020E066E10994462F05
:101BC000DC011696ED91FC9130E020E065E109948E
:101BD000EF92FF920F931F93CF93DF93EC01042FAB
:101BE00079016D3009F446C050F46B30C9F16930A9
:101BF00009F49FC06A3009F465C080E046C06E30C9
:101C000009F452C06F3099F70E947A0DF7011381E1
:101C1000110F110F110F6C89160F60E4CE010E9495
:101C2000DF0D612F62956F706061CE010E94DF0D44
:101C3000612F6F70CE010E94D60DF7016481606B39
:101C4000CE010E94D60DF701408151816281660F5D
:101C5000660F660FCE010E94830D0150A1F72EC0C2
:101C600067E271E0442311F062E271E0CE010E946C
:101C70008B0D0AC0411110C06BE171E00E948B0D09
:101C8000E881F98182898C8B81E0DF91CF911F916E
:101C90000F91FF90EF90089564E171E00E948B0D29
:101CA000E881F9818389EFCF0E947A0D61E8CE0146
:101CB0000E94DF0D602FCE010E94D60DCE010E9442
:101CC000710DE2CFEA85FB8530E020E040E068E27C
:101CD000CE010995EE81FF8130E020E040E064E133
:101CE000CE01099541E06BE4CE010E946A0DE881C6
:101CF000F981448169E2CE010E946A0D40E06BE403
:101D0000CE010E946A0DE881F981448169E2CE0129
:101D10000E946A0D41E06BE4CE010E946A0DE881E9
:101D2000F981458169E2CE010E946A0D6CE271E0A1
:101D30009DCF81E691E0998388831C8AA5CFDC0141
:101D40001896ED91FC9130E020E040E069E10994C3
:101D5000DC011896ED91FC9130E020E040E068E174
:101D60000994CF93DF931F92CDB7DEB76983BE018D
:101D70006F5F7F4F0E94590C0F90DF91CF910895B4
:101D8000EF92FF921F93CF93DF93EC01162F7A010E
:101D90000E94A80E60E4CE010E94B10EE885F9858C
:101DA0009701412F67E1CE010995CE01DF91CF91D7
:101DB0001F91FF90EF900C949F0EEF92FF921F9354
:101DC000CF93DF93EC01142F7901663181F138F460
:101DD000643109F44BC0653179F080E022C068318C
:101DE000C9F150F16931C9F780919003882391F1CD
:101DF000CE010E949F0E2EC080919003882319F07F
:101E0000CE010E949F0ECE010E94A80E60E0CE017E
:101E10000E94B10E612FCE010E94B10E81E080932D
:101E20009003DF91CF911F91FF90EF900895642F61
:101E30000E94B10E81E0F5CF80919003882319F0C4
:101E4000CE010E949F0EA701193138F4612FCE01F7
:101E50000E94C00E10929003EDCF68E1CE010E9467
:101E6000C00E185188E1E80EF11CEDCF8E898F3F2E
:101E700011F488E78E8BE885F9859701412F64E19D
:101E8000CE01DF91CF911F91FF90EF9009940F93B6
:101E9000FC01E05CFF4F0190F081E02D4E1B5F0BD9
:101EA000DC01D496ED91FC9109950F910895CF93A3
:101EB000DF93FC01A081B18182AD90E09C0143E001
:101EC000220F331F4A95E1F737AF26AF50962C917A
:101ED000509748E0249F9001112435AF24AF23ADE3
:101EE00030E0B90153E0660F771F5A95E1F7EF0133
:101EF000C05CDF4F7983688351964C915197E9011B
:101F0000C80FD91F50E04C175D0718F4CA01821B97
:101F1000930BEF01CE5BDF4F79836883229623E03A
:101F2000880F991F2A95E1F7860F971F9983888359
:101F3000229654968D919C91559799838883E85B5E
:101F4000FF4F56968D919C9191838083DF91CF9125
:101F50000895FC01208531858285938528173907EE
:101F60002CF54485558584819581480F591F5587E7
:101F700044878685978566817781860F971F978727
:101F800086871816190664F460817181460F571F01
:101F90005587448742815381841B950B9787868799
:101FA0002F5F3F4F3187208781E0089580E00895BB
:101FB0000F931F93FC01E25BFF4F0190F081E02D36
:101FC000DC01A05BBF4F0D90BC91A02D4A175B07B1
:101FD00040F4E017F10748F00417150730F080E0EF
:101FE00019C0E017F107C0F3FACFFC01E65BFF4F21
:101FF00040815181845B9F4FFC01808191816817F2
:10200000790758F481E04217530720F081E0261742
:10201000370728F71F910F91089542175307B0F320
:10202000DECF2F923F924F925F926F927F928F926C
:102030009F92AF92BF92CF92DF92EF92FF920F9357
:102040001F93CF93DF93CDB7DEB72A970FB6F894DF
:10205000DEBF0FBECDBF9A878987865B9F4F9A836D
:102060008983FC0111821082E985FA85EA5BFF4FC2
:102070004080518029853A85245B3F4F3C832B83E8
:10208000F90151824082E985FA85EE5BFF4F20809D
:10209000318029853A85225B3F4F3E832D83F901AC
:1020A00031822082E985FA85EC5BFF4F6080718088
:1020B00029853A85205B3F4F38872F83F90171824C
:1020C0006082E985FA85E85AFF4FE080F180E98572
:1020D000FA85EC5AFF4FA080B180E985FA85EA5A6B
:1020E000FF4FC080D180E985FA85EE5AFF4F80808E
:1020F000918087019501A601B40189859A850E9486
:10210000D80F29853A852C573F4F3A872987811167
:102110001BC0F90110822A960FB6F894DEBF0FBEDD
:10212000CDBFDF91CF911F910F91FF90EF90DF9086
:10213000CF90BF90AF909F908F907F906F905F9067
:102140004F903F902F90089581E0E985FA85808334
:102150008114910421F0E981FA8191828082A41492
:10216000B50420F4EB81FC81B182A0822C143D04E3
:1021700020F4ED81FE81D182C082E614F70458F686
:10218000EF81F885F182E082C6CF0F93CF93DF9382
:10219000E02FDC01AC57BF4FFC91FF2309F460C076
:1021A0002115310509F45CC02230310538F00230C8
:1021B00009F04AC06F5F7F4F621B730B0E2F0170D7
:1021C000E0FD52C0FC01E25BFF4F0190F081E02D89
:1021D0004E175F0708F444C0FC01E05BFF4F01901D
:1021E000F081E02D4E175F07D8F5FC01E45BFF4F4F
:1021F0000190F081E02DDC01A65BBF4F0D90BC91FA
:10220000A02D260F371F2617370738F56E177F07C3
:1022100018F59F0121503109A217B30708F56A1775
:102220007B0708F4BD012E173F0708F4F901E61BF0
:10223000F70BEC01AEA9BFA914960D90BC91A02D8F
:102240009F01FD0109950CC0033009F0B7CF4F5F26
:102250005F4F421B530BB2CFBD016E177F07E0F2F9
:10226000DF91CF910F910895FC01E65BFF4F019044
:10227000F081E02D6E177F0798F3FC01E45BFF4FC0
:102280000190F081E02D6E177F0750F7FC01E05BB5
:10229000FF4F0190F081E02DDC01A25BBF4F0D905C
:1022A000BC91A02D240F351F24173507A8F44E1715
:1022B0005F0788F49F0121503109A217B30780F608
:1022C0004A175B0708F4AD012E173F0708F4F90120
:1022D000E41BF50BAECFAD014E175F0708F6EDCF4F
:1022E0000F93CF93DF932CE330E0309311042093CE
:1022F0001004909313048093120424E430E030938C
:10230000150420931404709317046093160420E4BA
:1023100030E0309319042093180450931B04409329
:102320001A0423E02093280425E43CE03093500471
:1023300020934F042DE43CE030933D0420933C0473
:10234000EB0121E06817790714F0EC0120E0641735
:1023500075070CF4BA01681779070CF4BC014C1727
:102360005D0714F4EA0122E020933E046C1B7D0B10
:1023700070932B0460932A04672B09F48CC020937C
:10238000510461E0CE010E94160C60E0CE010E9473
:10239000160C81E080932904A0913E0484E0A89F5C
:1023A000D0011124A05FBB4FE091510484E0E89F6D
:1023B000F0011124E05FFB4F2D913C9180819181D0
:1023C0002817390709F45BC010922904C0912A0428
:1023D000D0912B0480E00E94B70B81E00E94B70BE4
:1023E00080912904882341F08CE294E00E94A90F97
:1023F0008FE394E00E94A90F409147045091480454
:1024000057FD2BC080912A0590912B05481759073D
:1024100024F5609138047091390480914B049091B7
:102420004C0468177907DCF597FD17C02091280543
:10243000309129056217730784F477FF02C070E0BA
:1024400060E0281739070CF4C9019C01261B370BE3
:1024500000E082EE94E00E94C5108CE294E00E94BD
:10246000A90F882391F18FE394E00E94A90F88239C
:1024700081F121971C161D060CF4BECF0CC0809173
:102480002A0490912B04019790932B0480932A04A3
:10249000892B09F09BCFDF91CF910F91089577FDA4
:1024A000DCCF209128053091290582179307ACF6DF
:1024B00097FF02C070E060E0621773070CF49B01A5
:1024C000281B390B00E0BC01C4CF80E00E94B70B91
:1024D000C4CF81E00E94B70BC6CFAF92BF92CF921C
:1024E000DF92EF92FF920F931F93CF93DF936C01D4
:1024F000EB015A017B01E20EF31E9C01240F351FF4
:102500008701AB01BC0182EE94E00E94D80F8823C2
:1025100061F000E09501AE01B60182EE94E00E9408
:10252000C5102196EC16FD06A1F7DF91CF911F9102
:102530000F91FF90EF90DF90CF90BF90AF900895F4
:10254000213069F038F0223079F0840F911D47FD79
:102550009A950895860F911D67FD9A950895841B9D
:10256000910947FD93950895861B910967FD939501
:102570000895213069F038F0223079F0861B9109F6
:1025800067FD93950895840F911D47FD9A950895D1
:10259000860F911D67FD9A950895841B910947FD4B
:1025A000939508953F924F925F926F927F928F9290
:1025B0009F92AF92BF92CF92DF92EF92FF920F93D2
:1025C0001F93CF93DF937C01162F442EEC01C25A48
:1025D000DF4F5E806F806C018AE8C80ED11C788462
:1025E0007518312E711608F4372C8C809D800E855D
:1025F000202F462D652D8A819B810E94A0125C01AF
:10260000202F462D652DC4010E94B912AC01442033
:1026100079F08C85F6018083232D30E0B501C70168
:102620000E94C510171548F017196394512CD7CF85
:102630008B858111F7CF8D85EDCF150D1E836F82B0
:10264000DF91CF911F910F91FF90EF90DF90CF908E
:10265000BF90AF909F908F907F906F905F904F90C2
:102660003F900895DC011A964C911A97ED91FC91D8
:102670001197249130E0042E02C0359527950A94D5
:10268000E2F7842F860F883068F031961196FC931C
:10269000EE93E49198E0941B01C0EE0F9A95EAF74F
:1026A0002E2B88501A968C938FEF9FEF01C0880FC6
:1026B0006A95EAF78095822308950F931F93CF932D
:1026C000DF938C01EC01C25ADF4F798368831A864D
:1026D000FC01EF58FF4F6081CE010E9432138887C2
:1026E000F801EE58FF4F6081CE010E9432138987B6
:1026F000F801E657FF4F90819C8781E0911180E0BF
:102700008D87DF91CF911F910F910895CF93C62FA1
:102710000E943213C15021E030E001C0220FCA955F
:10272000EAF7821BCF910895FC01E60FF11D849119
:1027300090E0982F88273196E4918E0F911D08958F
:10274000CF93DF9320913C0530913D052817390741
:1027500009F490C0EC0190933D0580933C05FC0189
:10276000849180934F053196E491E0935005FE01EA
:102770003296E491E0935105FE013396E491E093A3
:102780005205FE013496E491E0935305FE0135961F
:10279000E491E0935405FE013696E491E0935505EB
:1027A000FE013796E491E0935605FE013896E491D8
:1027B000E0935705FE013996E491E0935805FE0138
:1027C0003A96E491E0935905FE013B96E491E0933B
:1027D0005A05FE013C96E491E0935B05FE013D96AF
:1027E000E491E0935C05FE013E96E491E0935D0583
:1027F000FE013F96E491E0935E05FE017096E49140
:10280000E0935F0561E1CE010E949413909361050E
:102810008093600563E1CE010E9494139093630559
:102820008093620565E1CE010E9494139093650543
:102830008093640580913C0590913D05892BD1F0F2
:1028400080915C058093680540915D054093690522
:1028500090916705992371F0913079F490915E051C
:10286000891714F49093680580915F05841714F418
:1028700080936905DF91CF9108953091590520919A
:102880005B05082E000C990B622F022E000C770BB3
:10289000630F711D37FD7A95861797071CF4320F69
:1028A00030936805241734F720936905E3CFEF923E
:1028B000FF920F931F93CF93DF93FC01E65AFF4FD4
:1028C00020813181295E3F4F6F3F710509F048F546
:1028D00061367105D8F080589F4FFC01808191814D
:1028E000280F391FC9010196FC014491442309F4C2
:1028F00047C0F90144914617170671F40196DF911C
:10290000CF911F910F91FF90EF9008956134710561
:1029100048F382589F4FE1CFFC018491280F311D6D
:10292000E1CF8B01FC01EE57FF4FC081D181C20F77
:10293000D31F7E0160E0C7010E949413C80FD91F06
:1029400062E0C7010E949413F4E0EF0EF11C8017BF
:10295000910780F3FE01849190E0982F88273196AB
:10296000E4918E2B009761F00817190719F4CE0136
:102970000396C5CFFE013296E491CE0FD11DEACF6A
:1029800090E080E0BCCFCF92DF92FF920F931F9335
:10299000CF93DF93109248051092FA046C0180ECFB
:1029A000F82E10E000E0D0E0C0E0F60161916F0188
:1029B000E091E404F091E50482EE94E009958F3F04
:1029C000980789F18E3F2FEF920779F3BC0182EED1
:1029D00094E00E945714009721F1BC0182EE94E02C
:1029E0000E945D136091550580E495E00E94861376
:1029F00080936A056091560580E495E00E948613F5
:102A00006091570580E495E00E948613082F880F97
:102A1000110B80ECF81202C0F0906A05C00FD11FB4
:102A2000C4CF80E0F3CF20914805222399F0809114
:102A30006A05022E000C330B280F311D87FD3A95D5
:102A4000C20FD31FC01BD10B1F1424F4CF0DD11DF7
:102A5000F7FCDA95CE01DF91CF911F910F91FF9096
:102A6000DF90CF9008958F929F92AF92BF92CF92B6
:102A7000DF92EF92FF920F931F93CF93DF93EC01BE
:102A80007B018A016901FC01E459FF4F808181309B
:102A900009F46FC008F462C0823009F475C0833055
:102AA00009F47DC0FE01E05AFF4FF182E0823296C8
:102AB00011830083B601CE010E945714009709F4D8
:102AC000FFC07E012EE5E20EF11CBC01CE010E948A
:102AD0005D13FE01E959FF4FB0803C966081C7014C
:102AE0000E948613882EFE01EC58FF4F6081C701BB
:102AF0000E948613082FFE01EB58FF4F6081C7012B
:102B00000E948613A82EF701908419140CF090C02F
:102B100016850B0D0195212F402F682D8281938101
:102B20000E94A0126C01F70193838283212F402F12
:102B3000682D848195810E94B912AC01F7019583BB
:102B40008483113009F484C0A8F1123009F491C0D3
:102B5000133009F4A4C08C01960136C0FE01E45A7A
:102B6000FF4F0190F081E02DCE010995080F191F4C
:102B700099CFFE01E45AFF4F0190F081E02DCE0184
:102B80000995E81AF90A8ECFFE01E45AFF4F019029
:102B9000F081E02DCE010995081B190B83CFFE01B2
:102BA000E45AFF4F0190F081E02DCE010995E80E27
:102BB000F91E78CF9601290D311D97FC3A958C01AD
:102BC0000B0D111DB7FC1A95B601CE010E94D80F4E
:102BD000882371F1F701168217828E0101591F4F68
:102BE0006E01F0E7CF0ED11CF8016081C7010E9491
:102BF0003213882EF6016081C7010E943213982E8D
:102C000040E0682DCE010E94D21241E0692DCE0134
:102C10000E94D21261E0C7010E9432138111F0CFED
:102C2000F70187818B1504F3C657DF4F84858883AE
:102C30008A2DAA0C990BDF91CF911F910F91FF90D4
:102C4000EF90DF90CF90BF90AF909F908F900895BE
:102C500081E090E08B199109B7FC939596012F5F65
:102C60003F4F8A01090D111D97FC1A95C80ED91EF8
:102C7000ABCF81E090E0BC016919710997FC7395B5
:102C800096012F5F3F4F8B199109B7FC93958A01ED
:102C90000F5F1F4F480F591FC60ED71E95CF9601C5
:102CA0002B0D311DB7FC3A9581E090E0891991090F
:102CB00097FC93958A010F5F1F4F480F591F84CFD0
:102CC00090E080E0B8CFCF92DF92EF92FF920F9327
:102CD0001F93CF93DF93EC018B011092FA047A01DA
:102CE000D12CC12CF70161917F01E091E404F091B6
:102CF000E50482EE94E009958F3F980719F18E3F25
:102D00002FEF920779F39C01A801BE0182EE94E0B7
:102D10000E94331520914E05213059F038F02230B1
:102D200059F0233061F0C80ED91EDCCFC80FD91F6F
:102D3000FACF080F191FF7CFC81BD90BF4CF081B08
:102D4000190BF1CFC601DF91CF911F910F91FF9029
:102D5000EF90DF90CF9008952BE33BE03093E504B4
:102D60002093E4040C946316CF93DF93EC016BAFD4
:102D7000EEA9FFA90190F081E02D0995EEA9FFA928
:102D80000280F381E02DCE01DF91CF910994AF92C3
:102D9000BF92CF92DF92EF92FF920F931F93CF9348
:102DA000DF9300D000D01F92CDB7DEB78C01DC01DD
:102DB000DA96AC90DA97DB96EC90DB97ED91FC918C
:102DC000B188FE2CD12CC12CD801ED91FC9111972A
:102DD0008089D8962D913C911C82FD828B83B8E02E
:102DE0008B9FC00111248C9DA0018D9D500D9C9D39
:102DF000500D1124240F351F3A832983D8011496CE
:102E0000ED91FC919E012F5F3F4F41E06FE0C801C3
:102E10000995F3948F2D8E198A1528F4BFEFCB1ADC
:102E2000DB0AFB1488F20F900F900F900F900F9019
:102E3000DF91CF911F910F91FF90EF90DF90CF9096
:102E4000BF90AF900895089508950F931F93CF9367
:102E5000DF938C01C62F642FCC32E8F4CA3208F01D
:102E600041C0C83271F1C93209F442C080E0C034B7
:102E7000D0F1CF73F801EC0FF11D868D8F3F91F1EA
:102E8000C031E0F00E948A0C21E0892B09F420E097
:102E9000F801218F27C0CD3289F140F384EB8C0FEC
:102EA000823020F7CF73C00FD12FD11D8E8D4111ED
:102EB00033C061E00E94E10C60E08E8D0E94B30C93
:102EC00011C0025E1F4FD0E0F80181918F018F3F4A
:102ED00031F061E0D03108F062E00E94E10CDF5F88
:102EE000D63191F781E0DF91CF911F910F91089535
:102EF00070E090E080E00E94370DF4CF85E090E034
:102F0000433010F082E090E0880F991F880F991FDE
:102F100005970197F1F7E6CF62E00E94E10CE2CF5E
:102F200020916903260F3327331F21323105ECF43A
:102F30002091E603FC0190E080E0243069F082E01B
:102F40000895A09169032191AC01475B5C4FA40FE8
:102F5000B52FB11D2C930196861798F380916903C4
:102F6000680F6093690380E0089581E008951092EE
:102F7000E60381E08093E5031092C00361E082E103
:102F80000E94B30C61E083E10E94B30CE9EBF0E036
:102F900080818E7F808380818D7F808388E4809391
:102FA000B80085E48093BC000895CF93DF9391E04F
:102FB000909348038823B9F0C091B800D091BA002B
:102FC0008091BC008A7B8093BC0060E082E10E941B
:102FD000B30C60E083E10E94B30C0E94B717D0935A
:102FE000BA00C093B800DF91CF9108958F929F925D
:102FF000AF92BF92CF92DF92EF92FF920F931F9307
:10300000CF93DF93D0910F04D13208F0D7C0182F9F
:10301000C0910E040E94120D6B017C018091E603A9
:1030200081116BC082E08093E6031093E5038FEF7C
:103030008093E4031092E303D093E203AEEEB3E097
:10304000E2ECF3E080E0D81391C01092C1038091CC
:10305000C103CC0FC82BC093C1038091C003813042
:1030600009F088C01092C0030E94120D6B017C0110
:103070008091C1038093BB008091E8039091E903A4
:10308000A091EA03B091EB03892B8A2B8B2BA1F043
:103090000E94120D0091E8031091E9032091EA03C8
:1030A0003091EB036C197D098E099F0906171707EC
:1030B0002807390708F442C08091BC0083FDD8CFAF
:1030C00085EC8093BC000E94120D6B017C01809105
:1030D000E603823009F450C08091E4038F3F09F485
:1030E0006FC08091E403803209F46CC08091E403E6
:1030F000803309F469C084E026C08091E803909190
:10310000E903A091EA03B091EB03892B8A2B8B2B67
:1031100009F484CF0E94120D8090E8039090E90397
:10312000A090EA03B090EB036C197D098E099F090A
:1031300086169706A806B90608F070CF8091E703B7
:103140000E94D51785E01092ED0310920F041092A3
:10315000EC03DF91CF911F910F91FF90EF90DF90E3
:10316000CF90BF90AF909F908F9008959D91919335
:103170008F5F69CF85EEA5CF8091E8039091E90339
:10318000A091EA03B091EB03892B8A2B8B2B09F4D6
:103190009ECF0E94120D0091E8031091E903209147
:1031A000EA033091EB036C197D098E099F0906171C
:1031B00017072807390708F08ACFC0CF81E0C3CFAF
:1031C00080E0C1CF82E0BFCF83E0BDCF0895E09122
:1031D000920380919103E81730F4F0E0ED56FC4F34
:1031E000808190E008958FEF9FEF08959091920372
:1031F000809191032FEF3FEF981748F4E92FF0E00B
:10320000ED56FC4F208130E09F5F90939203C901FF
:1032100008958091910390919203891B990B0895D1
:10322000CF92DF92EF92FF920F931F93CF93DF9392
:103230007C01CB018A012091EC03222389F0EB0170
:103240006B01C40ED51ECC15DD0569F06991D7015F
:10325000ED91FC910190F081E02DC7010995F3CF2C
:10326000642F0E949017C801DF91CF911F910F9199
:10327000FF90EF90DF90CF900895CF93DF93EC0114
:10328000962F683109F445C0B901993130F4943171
:1032900099F0973159F080E006C0993109F45BC08C
:1032A0009032C9F781E0DF91CF91089550E082E537
:1032B00094E00E941019F6CF8C859D85AE85BF8560
:1032C000892B8A2B8B2B71F4E881F981A585B0E0DD
:1032D00020EA36E841E050E00E944E256C877D8769
:1032E0008E879F8710929203109291031092ED03A4
:1032F00010920F040E94B71783E297E190938F0317
:1033000080938E0384E297E190938D0380938C03E6
:10331000C9CF2C853D854E855F8560E074E284EFE2
:1033200090E00E94C7252051310941095109569565
:103330004795379527952093B8008E8990E095950D
:10334000879591E09093EC0380930E041092ED0327
:1033500010920F04A7CF81E00E94F617A3CFCF935E
:10336000DF931F92CDB7DEB769832091EC03222350
:10337000F9F020910F04203258F021E030E0FC01F8
:103380003383228390E080E00F90DF91CF91089506
:103390008091ED03E82FF0E0E251FC4F998190839A
:1033A0008F5F8093ED0380930F0481E090E0ECCF7A
:1033B00061E0CE0101960E949017F7CF2F923F92C5
:1033C0004F925F926F927F928F929F92AF92BF9235
:1033D000CF92DF92EF92FF920F931F93CF93DF93E1
:1033E00000D000D01F92CDB7DEB74C012B015D831A
:1033F0004C837A01485D5F4F5B834A838A0124E5F1
:1034000030E0A7016CE270E082EE94E00E94D80FF9
:10341000882309F464C017014FEF241A340A81018C
:1034200024E530E0A7016CE270E082EE94E00E94B7
:10343000D80F882309F449C050916C055983640161
:103440003CE2632E712C48E2A42EB12C11E0F6016F
:103450008491812330E020E0F601811120C0949115
:10346000912359F080916B05811128C081E0498139
:10347000411180E080936C0518C02F5F3F4FFFEF34
:103480006F1A7F0A110F21F44FEFC41AD40A11E00A
:1034900051E0A51AB10801F7882321F303C09491E4
:1034A000912359F7F981F0936C05B301621B730BFB
:1034B00000E0A70182EE94E00E94C510A114B104BF
:1034C00009F0C5CF598150936C0585E0880E911C99
:1034D0007101EA81FB81E215F30509F09CCF81E9D6
:1034E00091E10E94A0138BE39BE09093E50480930D
:1034F000E404C2010E94C3146C817D816E5C7F4F25
:1035000020E830E0A901481B590BCA0157FD01967C
:10351000A201959587950E94AC1645E050E070E0B9
:1035200060E090E080E00E9470114AE350E06FE3B9
:1035300070E08FE390E00F900F900F900F900F903E
:10354000DF91CF911F910F91FF90EF90DF90CF907F
:10355000BF90AF909F908F907F906F905F904F90B3
:103560003F902F900C947011CF92DF92EF92FF92C8
:103570000F931F93CF93DF936C01EB017B01E40E5C
:10358000F51E10E000E0CE15DF0561F06991D6016F
:10359000ED91FC910190F081E02DC6010995080F95
:1035A000191FF1CFC801DF91CF911F910F91FF90AB
:1035B000EF90DF90CF900895CF92DF92EF92FF923D
:1035C0000F931F93CF93DF93EC016C0124E0C20EA5
:1035D000D11CFC01E057FF4F0190F081E02DC601A6
:1035E00009958E3FEFEF9E07D8F48E010C561F4FC2
:1035F000F801408151817E01F2E9EF0EF11CF701E3
:10360000608171819C01C6010E943315C059DF4F52
:1036100028812130C1F078F02230B9F02330E9F070
:1036200081E090E0DF91CF911F910F91FF90EF909B
:10363000DF90CF900895F70120813181820F931F91
:1036400091838083EDCFF801F7CFF701208131819D
:10365000281B390B31832083E3CFF801F7CF08957E
:1036600090E080E008958F929F92AF92BF920F9367
:103670001F93CF93DF93CDB7DEB7A1970FB6F89422
:10368000DEBF0FBECDBF19A2423008F44AE08E0162
:103690000F5D1F4F842E912CB12CA12CA5019401FC
:1036A0000E94C725E62FB901CA01EA3044F5E05D62
:1036B000D801EE938D01232B242B252B79F790E055
:1036C00080E0109769F0FD0101900020E9F7319743
:1036D000AF014A1B5B0BBD018EED94E00E94B41A52
:1036E000A1960FB6F894DEBF0FBECDBFDF91CF918C
:1036F0001F910F91BF90AF909F908F900895E95CBC
:10370000D7CFFC01A081B18150962C9182AD38E0D9
:10371000839FC0011124289FA001299F500D1124CF
:1037200070E060E080AD91AD0C94EF251F93CF93D6
:10373000DF93EC010E94C7161BAD8AAD180FE8811C
:10374000F9818189181768F0EC81FD8130E020E073
:1037500040E060E1CE01099580E0DF91CF911F91BB
:103760000895FE01E557FF4F8081882319F0CE01AF
:103770000E94811B612FCE010E94B41681E0EDCF23
:10378000CF93DF93EC01FC01E557FF4F8081882345
:1037900019F0CE010E94811B60E0CE01DF91CF9134
:1037A0000C94B416EF92FF920F931F93CF93DF9375
:1037B0008C0181E991E10E94A0138BE39BE090933F
:1037C000E5048093E404C8010E94C31420E830E0BB
:1037D000281B390B37FF02C02F5F3F4F7901F5944B
:1037E000E79460915905062E000C770B605C7F4FC3
:1037F00077FF02C06F5F7F4FEB01D595C79582EED3
:1038000094E00E94C01BA801BE01C7010E94AC1633
:1038100082EE94E00E94961B8111F5CF68EE73E072
:1038200080E090E0DF91CF911F910F91FF90EF909A
:103830000C94370D2F923F924F925F926F927F922E
:103840008F929F92AF92BF92CF92DF92EF92FF92B0
:103850000F931F93CF93DF9300D000D0CDB7DEB787
:1038600021E030E08617970714F42FEF3FEF880F21
:10387000991FAC014A5F5E4F1A01390156E0660C90
:10388000771C5A95E1F7FB01EE0FFF1FFC83EB83DA
:10389000EA5FFE4F2F01490173E0880C991C7A956D
:1038A000E1F710E000E0E9E0EE2EF12C9C01275852
:1038B0003E4F3A8329834B815C8147585E4F5C833E
:1038C0004B8382EE94E00E94C01B6801C618D708A3
:1038D000E981FA81A080B180F10160817181A80144
:1038E000C5010E94DE19F20160817181A601EB81A0
:1038F000FC81808191810E94DE1982EE94E00E9419
:10390000961B8111E9CF64E170E080E090E00E94B5
:10391000370DF1E0EF1AF108080D191DE114F1045B
:1039200081F60F900F900F900F90DF91CF911F9124
:103930000F91FF90EF90DF90CF90BF90AF909F904E
:103940008F907F906F905F904F903F902F90089551
:1039500085ED8093BC008091E8039091E903A091EC
:10396000EA03B091EB030796A11DB11D23E0B695C4
:10397000A795979587952A95D1F72091BC0024FDAE
:1039800003C01092E60308954091E8035091E903C3
:103990006091EA037091EB03452B462B472B69F3AB
:1039A0000097A105B10541F02AE22A95F1F700C080
:1039B0000197A109B109E1CF8091E7030C94D517D4
:1039C0001F920F920FB60F9211242F933F938F9354
:1039D0009F93AF93BF938091B8039091B903A09147
:1039E000BA03B091BB033091B70323E0230F2D3707
:1039F00058F50196A11DB11D2093B7038093B8031C
:103A00009093B903A093BA03B093BB038091BC0316
:103A10009091BD03A091BE03B091BF030196A11D7B
:103A2000B11D8093BC039093BD03A093BE03B093DC
:103A3000BF03BF91AF919F918F913F912F910F90B5
:103A40000FBE0F901F90189526E8230F0296A11D18
:103A5000B11DD2CF1F920F920FB60F9211242F9348
:103A60003F934F935F936F937F938F939F93AF9306
:103A7000BF93EF93FF938091B900887F803609F45C
:103A80004AC0F0F5883209F4A7C018F5803109F46E
:103A90009BC0B8F4882309F4F9C0883009F494C0B5
:103AA000FF91EF91BF91AF919F918F917F916F9116
:103AB0005F914F913F912F910F900FBE0F901F90EC
:103AC0001895883109F488C0803251F78093E40357
:103AD00014C0803409F49DC040F48033B9F38833B6
:103AE000F9F68093E40385ECB0C0803509F485C015
:103AF000883509F496C0883499F60E94A81CD0CF66
:103B0000883909F48CC038F5883729F050F48836A4
:103B100011F0803729F683E08093E60310928B033F
:103B200057C0883809F47BC0803919F0803809F013
:103B3000B7CF80918B03803208F071C0E0918B0386
:103B400081E08E0F80938B038091BB00F0E0E559FC
:103B5000FC4F80833DC0803B39F0E0F4803A09F4AB
:103B600079C0883A09F09CCF84E08093E6031092F4
:103B70006A0310926903E0918E03F0918F03099517
:103B80008091690381110FC081E0809369031092D5
:103B9000490309C0803C09F4A6CF883C09F4A3CFAF
:103BA000883B09F07DCFE0916A0381E08E0F80931E
:103BB0006A03F0E0E75BFC4F80818093BB0090914B
:103BC0006A038091690329C08091C1038093BB007F
:103BD00085EC8093BC0064CF9091E3038091E20375
:103BE000981758F5E091E30381E08E0F8093E3038B
:103BF000F0E0EE53FC4F8081E9CFE091E30381E0F8
:103C00008E0F8093E3038091BB00F0E0EE53FC4FF6
:103C100080839091E3038091E2039817C8F285E8CE
:103C2000D8CFE091E30381E08E0F8093E30380918E
:103C3000BB00F0E0EE53FC4F80838091E5038111DF
:103C40005CCF81E08093C00384EA8093BC00109233
:103C5000E60326CF85EC8093BC001092E6038091AA
:103C60008B03803230F4E0918B03F0E0E559FC4F98
:103C7000108260918B0370E0E0918C03F0918D03D2
:103C80008BE693E0099510928B030ACF1092E40320
:103C900034CFCF93109255041092540488EE93E0E1
:103CA000A0E0B0E08093560490935704A09358048A
:103CB000B09359048BE891E090935304809352049D
:103CC0001092E1041092E0048BE39BE090936F0567
:103CD00080936E0510927105109270051092730515
:103CE000109272051092FA048DE991E09093DF042E
:103CF0008093DE041092E3041092E2041092F70421
:103D00001092EE041092EF041092F0041092F1045D
:103D10008FEF8093F8048093FC04E0E0F5E086E107
:103D200095E0CFEFC1938E179F07E1F788EE9DE0F6
:103D30009093E7048093E6048DED9EE09093E90470
:103D40008093E8048DE399E19093EB048093EA0477
:103D500085E297E19093ED048093EC0430E020E05D
:103D600040E069E082EE94E00E94E80D10923D058B
:103D700010923C0585E49BE090931705809316050F
:103D80008EE594E090931B0580931A0581E0809363
:103D90001C0510921D0510924B0510926B05109298
:103DA000670580936C0580936D0585EA91E090939B
:103DB00019058093180582EE94E00E94570F109227
:103DC00035051092340510923905109238058FEFA1
:103DD0009FEF909337058093360590933B05809332
:103DE0003A05E0911805F09119050280F381E02D64
:103DF00082EE94E0099584EB9BE090933F058093DD
:103E00003E0510924E05C0930B05C0930C05C09360
:103E10000D05CF910895CF93DF93CDB7DEB7EB9724
:103E20000FB6F894DEBF0FBECDBF789484B5826024
:103E300084BD84B5816084BD85B5826085BD85B54E
:103E4000816085BD80916E00816080936E001092CC
:103E50008100809181008260809381008091810047
:103E600081608093810080918000816080938000D8
:103E70008091B10084608093B1008091B000816036
:103E80008093B00080917A00846080937A00809162
:103E90007A00826080937A0080917A0081608093BA
:103EA0007A0080917A00806880937A001092C10035
:103EB0008CE08093B800E091E604F091E70430E0F4
:103EC00020E040E06AE082EE94E0099582EE94E022
:103ED0000E94C01B82EE94E00E94961B8111FACFD3
:103EE00060E082EE94E00E94B416E091E604F09166
:103EF000E70430E020E040E06BE082EE94E00995DA
:103F000062E082E00E94E10C62E083E00E94E10C4A
:103F100062E084E00E94E10C82EE94E00E94C01B0B
:103F20008091B5039091B603880F991FFC01EA5F59
:103F3000FE4F6081718187589E4F4CE050E0DC015C
:103F40008D919C910E94DE1982EE94E00E94961B56
:103F50008111E6CF82E00E948A0C98AB8FA783E0A4
:103F60000E948A0C9AAB89AB84E00E948A0C9CABBD
:103F70008BAB8091040190910501892BC9F4EFA5C9
:103F8000F8A93197A9F48091B5039091B6038C01FB
:103F90000150110917FF02C006E010E080179107D9
:103FA00019F0B8010E941A1C1093B6030093B503D0
:103FB000009102011091030101151105D1F429A905
:103FC0003AA921303105A9F48091B5039091B60347
:103FD0009C012F5F3F4F273031050CF4890180177A
:103FE000910719F0B8010E941A1C1093B6030093B0
:103FF000B5038091000190910101892B09F091C0D6
:104000004BA95CA94130510509F08BC08091B503E3
:104010009091B60399A788A78730910508F03BC512
:10402000FC01EB5EFF4D0C94E9251C20B1202323FD
:104030005E2375244325482582EE94E00E94C01B30
:1040400029E6E22EF12C81E991E10E94A0134BEACE
:1040500051E06CE070E090E080E00E94AC160CE073
:1040600010E027E630E042E050E065E570E082EEE7
:1040700094E00E94D80F882359F100E022E130E05B
:1040800042E050E065E570E082EE94E00E94C510E9
:1040900001E028E030E043E050E065E570E082EECA
:1040A00094E00E94C51028E030E043E050E066E66E
:1040B00070E082EE94E00E94C51000E022E130E062
:1040C0004BE050E065E570E082EE94E00E94C510A0
:1040D0002AE030E04DE050E062E070E085E590E0FD
:1040E0000E946D12F0927105E09270058CE090E0F4
:1040F00090937305809372054AE06BE470E080E072
:1041000090E00E94331B41E050E061EB71E08EEDE6
:1041100094E00E94B41A82EE94E00E94961B8111F2
:1041200092CF4FA558A9509305014093040189A946
:104130009AA99093030180930201ABA9BCA9B09303
:104140000101A093000164E170E080E090E00E9432
:10415000370D80E090E0892B09F4FCCE0E9400002E
:10416000F9CE19826090B3037090B403D301149612
:104170008D919C911597892B09F0D6C069816F7735
:104180005A814B812D81822F90E034E0959587955F
:104190003A95E1F7982F990F990F891B880F382EC0
:1041A000320E2E812F77822F90E074E095958795BF
:1041B0007A95E1F7982F990F990F891B880F282E70
:1041C000220E8F81282F30E0E4E035952795EA957F
:1041D000E1F7922F990F990FF22EF91AFF0CF80EB2
:1041E0000F2D10E0862F90E0F4E095958795FA95D5
:1041F000E1F7982F990F990F891B880F860F1F924F
:104200008F93252F30E0A4E035952795AA95E1F707
:10421000822F880F880F281B220F250F1F922F93A4
:10422000842F90E0B4E095958795BA95E1F7982FA3
:10423000990F990F891B880F840F1F928F9383EB1F
:1042400091E09F938F931F9280E18F93CE014596CB
:104250009F938F930E94F62582EE94E00E94C01BEC
:1042600098012D5F3F4F36952795369527954DE65A
:1042700051E0049FC001059F900D149F900D1124E3
:104280000596F901E80FF91FFBA7EAA70FB6F89406
:10429000DEBF0FBECDBF3F2D33703EA797E0892E06
:1042A000912C2E0145E2440E511C81E991E10E94BE
:1042B000A01342EC51E06CE070E090E080E00E94DE
:1042C000AC1648EC51E06CE070E088E290E00E94AF
:1042D000AC164EE052E068E170E090E080E00E94B1
:1042E000AC16AE014F5F5F4F68E170E088E290E08E
:1042F0000E94AC168DE69EE00E94A0134EEC51E0A9
:104300006EE170E090E080E00E94AC16832D90E0BA
:10431000E0EEF5E021E0221508F02CC13491830F86
:10432000911D2F5F3196F7CF11968D919C91129729
:104330002C9131E03093EC0320930E041092ED03A6
:1043400010920F04DC01ED91FC910280F381E02DCD
:1043500041E050E0BE016F5F7F4F0995019709F082
:104360000DCF80E00E94F617811108CFD12CC12C0F
:1043700097E0A92EB12CF301848195817501EC1889
:10438000FD088E159F0508F47C01D3010C910E9455
:10439000120D1B012C018091E603811173C01E2DAB
:1043A000113208F010E2B1E0B093E60321E0C5015C
:1043B0008E199F09C816D90608F420E02093E5035A
:1043C000EFEFE093E4031092E3038FEF810F80930C
:1043D000E203F1E0F093C1038091C103000F082BC9
:1043E0000093C1038091C003813009F095C0109201
:1043F000C0030E94120D1B012C018091C103809308
:10440000BB008091E8039091E903A091EA03B09189
:10441000EB03892B8A2B8B2BA1F00E94120D20918C
:10442000E8033091E9034091EA035091EB036219EC
:10443000730984099509261737074807590708F4AF
:1044400042C08091BC0083FDD8CF25EC2093BC00F6
:104450000E94120D1B012C018091E603813009F4AA
:104460005FC08091E303811710F41091E303A2EC85
:10447000B3E0E3E9F3E080E0811751F19D9191937E
:104480008F5FFACF8091E8039091E903A091EA034E
:10449000B091EB03892B8A2B8B2B09F47CCF0E94E4
:1044A000120D2091E8033091E9034091EA03509105
:1044B000EB03621973098409950926173707480722
:1044C000590708F068CF8091E7030E94D51710E0E4
:1044D00010929203109391031E151F0409F04ECE03
:1044E00001E010E00C0F1D1F0C0D1D1D4801C8013F
:1044F000881999098E159F05A8F5D30111968D91FC
:104500009C91DC01ED91FC910284F385E02D0995ED
:10451000F80181938F01EBCF35EE3093BC0098CF3B
:104520008091E8039091E903A091EA03B091EB0335
:10453000892B8A2B8B2B09F48FCF0E94120D20918F
:10454000E8033091E9034091EA035091EB036219CB
:10455000730984099509261737074807590708F092
:104560007BCFB1CFCE0CDF1CF7E0CF16D10408F41F
:1045700002CF04CE22E0221520F43EA5311101C065
:1045800001964AA55BA5840F951FB4010E949F2543
:104590003C0108A519A5C301B4010E94B3259DA73C
:1045A0008CA77B0183E0EE0CFF1C8A95E1F71F933B
:1045B0000F9383EE91E09F938F931F92B3E0BF938D
:1045C0005F924F920E94F6255701E6E2AE0EB11CB3
:1045D0000FB6F894DEBF0FBECDBF8FE04CA55DA532
:1045E000849F6001859FD00C11240630110529F5A8
:1045F000B701605E7F4F27E030E04AE050E0C6013F
:104600000E946D1280E00E94560CA201B501C60105
:104610000E94AC1681E00E94560C0F5F1F4F9FEF67
:10462000691A790A0032110509F0B5CF82EE94E0DB
:104630000E94961B811139CE74CDA201B501C6012D
:104640000E94AC16EACF82EE94E00E94C01B81E982
:1046500091E10E94A01347EE51E06CE070E090E021
:1046600080E00E94AC168DE69EE00E94A01345EF0C
:1046700051E06CE170E090E080E00E94AC164FEFFA
:1046800051E064E270E090E080E00E94AC164FE000
:1046900052E062E370E090E080E00E94AC164DE1F1
:1046A00052E06AE370E090E080E00E94AC1682EE97
:1046B00094E00E94961B8111CACF33CD8824839445
:1046C000912CAA24A394B12C01E010E0C12CD12C90
:1046D0007601412C512C320118A684E00E948A0CEC
:1046E0009DA78CA782E00E948A0C1C0183E00E9497
:1046F0008A0C9BA78AA7012BC1F4ACA5BDA5119775
:10470000A1F4B8A5B111E0C02FB7F8944090B80358
:104710005090B9036090BA037090BB032FBF4C1840
:104720005D086E087F08E1E0E8A7AB2829F4F1E016
:104730002F16310409F4F5CC892831F42AA53BA5BC
:104740002130310509F4EDCC38A5332379F08FB74A
:10475000F894C090B803D090B903E090BA03F090F9
:10476000BB038FBFC418D508E608F708C701B60118
:1047700028EE33E040E050E00E94C725CA01B901AD
:104780002CE330E040E050E00E94C7256EA77DABEF
:104790008EAB9FABC701B60120E63AEE40E050E099
:1047A0000E94C725CA01B9012CE330E040E050E087
:1047B0000E94C725162F072F982E892EC701B601F4
:1047C00020E83EEE46E350E00E94C72528AF39AF0F
:1047D0004AAF5BAF82EE94E00E94C01B48A5ADE2F9
:1047E000AA2EA2E0BA2E411104C0F5E3AF2EF2E0EA
:1047F000BF2E85E496E00E94A0135FA95F938EA967
:104800008F939DA99F93AEA5AF938F929F920F9385
:104810001F93BBADBF93EAADEF93F9ADFF9328AD06
:104820002F934CE352E05F934F931F9290E19F933D
:10483000A1E0B0E0AC0FBD1FBF93AF930E94F6257F
:10484000EBE3FBE0F093E504E093E404CE01019692
:104850000E94C31420E830E0281B390BC90137FD42
:104860000196AE014F5F5F4F60E270E095958795CE
:104870000E94AC1681E991E10E94A013A50167E3B3
:1048800070E08AE090E00E94AC164EE452E067E3EC
:1048900070E080E590E00E94AC1682EE94E00E9409
:1048A000961B0FB6F894DEBF0FBECDBF8111A1CF0E
:1048B00062E370E080E090E00E94370D8AA49BA440
:1048C00051010CA51DA509CF8FB7F894C090B8036E
:1048D000D090B903E090BA03F090BB038FBFC41827
:1048E000D508E608F70818A620CFFE013B968AE017
:1048F000DF011D928A95E9F784E692E09A83898325
:1049000083E792E09C838B838CE792E09E838D8388
:1049100087E892E098878F8385E992E09A87898774
:10492000CC24C394D12CEE24E394F12CAA24A39498
:10493000B12C10E000E084E00E948A0C1C0182E0AF
:104940000E948A0C2C0183E00E948A0C3C01EF2813
:1049500049F4B1E04B16510429F40150110910F447
:1049600008A519A5CD2859F4F1E06F16710439F4A2
:104970000F5F1F4F0530110514F010E000E082EECC
:1049800094E00E94C01B81E991E10E94A01344EAD7
:1049900052E06CE070E090E080E00E94AC168DE6A2
:1049A0009EE00E94A0139E012F5F3F4F3BA72AA7C6
:1049B000F12CE12C88E1C82ED12CAAA5BBA58D90A5
:1049C0009D90BBA7AAA7E016F10609F04BC0BAE07C
:1049D000BE9DB001BF9D700D1124605F7F4F2AE026
:1049E00030E040E850E090E080E00E946D1280E00E
:1049F0000E94560CA401B60182E090E00E94AC1621
:104A000081E00E94560CEFEFEE1AFE0AFAE0CF0E9C
:104A1000D11C25E0E216F10481F64BEA52E06FE387
:104A200070E090E080E00E94AC1682EE94E00E947C
:104A3000961B8111A8CFAA94AB28D9F42114310474
:104A4000C1F462E370E080E090E00E94370D84E002
:104A50000E948A0C892B69F484E00E948A0C892BBD
:104A6000D9F35FCBA401B60182E090E00E94AC16BE
:104A7000CACF62E370E080E090E00E94370D6301EE
:104A80007201510158CF82EC92E00E94D21B49CBB7
:104A90008FEC92E0FACF82EE92E0F7CF0E94902561
:104AA000A59F900DB49F900DA49F800D911D112482
:104AB00008952F923F924F925F926F927F928F92C2
:104AC0009F92AF92BF92CF92DF92EF92FF920F939D
:104AD0001F93CF93DF93CDB7DEB7CA1BDB0B0FB6A7
:104AE000F894DEBF0FBECDBF09942A883988488864
:104AF0005F846E847D848C849B84AA84B984C884FA
:104B0000DF80EE80FD800C811B81AA81B981CE0FF0
:104B1000D11D0FB6F894DEBF0FBECDBFED010895D5
:104B2000A29FB001B39FC001A39F700D811D1124EE
:104B3000911DB29F700D811D1124911D0895AA1B16
:104B4000BB1B51E107C0AA1FBB1FA617B70710F078
:104B5000A61BB70B881F991F5A95A9F780959095AA
:104B6000BC01CD01089597FB072E16F4009407D0E1
:104B700077FD09D00E949F2507FC05D03EF4909553
:104B800081959F4F0895709561957F4F0895A1E29B
:104B90001A2EAA1BBB1BFD010DC0AA1FBB1FEE1FB7
:104BA000FF1FA217B307E407F50720F0A21BB30B02
:104BB000E40BF50B661F771F881F991F1A9469F77E
:104BC00060957095809590959B01AC01BD01CF01DA
:104BD0000895EE0FFF1F0590F491E02D0994DC017C
:104BE00001C06D9341505040E0F70895AEE0B0E051
:104BF000ECEFF5E20C9467250D891E898F89988D5D
:104C000026E02C831A83098397FF02C080E090E896
:104C100001979E838D83AE01455E5F4F698D7A8DCE
:104C2000CE0101960E9426264D815E8157FD0AC065
:104C30002F813885421753070CF49A01020F131F76
:104C4000F80110822E96E4E00C948325ABE0B0E0EE
:104C5000ECE2F6E20C9459257C013B018A01FC014F
:104C600017821682838181FFC8C1CE0101965C0143
:104C7000F7019381F30193FD859193FF81913F01AA
:104C8000882309F453C1853239F493FD859193FF4C
:104C900081913F01853229F4B70190E00E941628E6
:104CA000E7CF912C212C312CFFE1F31538F08B321A
:104CB00011F190F4803209F1833229F137FC3CC0C4
:104CC00020ED280F2A3050F536FE20C08AE0989E4D
:104CD000200D1124922E06C08D3291F0803371F791
:104CE000689430F8F30193FD859193FF81913F0122
:104CF0008111DACF21C0689431F8689432F8F2CF8C
:104D0000689433F8EFCF689434F8ECCFEAE02E9E45
:104D1000200D1124222E689435F8E4CF8E3229F428
:104D200036FC04C1689436F8DDCF8C3619F46894EB
:104D300037F8D8CF8836B1F2982F9F7D95549330AD
:104D4000E0F08336A1F18337C1F1833509F063C008
:104D50002801F2E04F0E511CF801C080D180692D6E
:104D600070E036FC02C06FEF7FEFC6010E940028A2
:104D70004C01689437F882010AC00C5F1F4FFFE3B3
:104D8000F98388248394912C6501E89437F833FEE5
:104D90002DC0522C8114910471F5552009F468CF6F
:104DA000B70180E290E00E9416285A94F6CFF801ED
:104DB000808189830E5F1F4FE4CF2801F2E04F0E00
:104DC000511CF801C080D180692D70E036FC02C012
:104DD0006FEF7FEFC6010E940B284C018201D5CFF7
:104DE000B70180E290E00E9416282A942814190442
:104DF00009F0B0F7CECFF60137FC859137FE8191EF
:104E00006F01B70190E00E94162851105A94F1E00A
:104E10008F1A9108BFCF843619F0893609F077C010
:104E2000F80137FE6BC060817181828193810C5FD4
:104E30001F4FF32DFF763F2E97FF09C09095809569
:104E4000709561957F4F8F4F9F4F689437F82AE098
:104E500030E0A5010E944628C82ECA188C2C432C8D
:104E600036FE0CC0E89440F8C91440F434FE05C086
:104E700032FC03C0F32DFE7E4F2E892C44FE95C0DC
:104E8000FE01EC0DF11D8081803309F087C0242DD7
:104E9000297E422E842D8870582E43FC95C040FEFA
:104EA0008FC09C2C821418F42C0C922C981844FE61
:104EB00091C0B70180E390E00E94162842FE09C02D
:104EC00088E790E041FE02C088E590E0B7010E94CB
:104ED0001628C91408F48AC0CA94D12C9FEFC91AA5
:104EE000D90ACA0CDB1CF60182916F01B70190E070
:104EF0000E941628AC14BD04B1F74FCF60817181B8
:104F0000072E000C880B990B0E5F1F4F92CFD32CEE
:104F1000E894D4F82AE030E0853739F1232D297F51
:104F2000D22E8F3601F148F48835A9F0F701868139
:104F300097812B96E2E10C947525803749F08837EC
:104F4000A9F7D4FE02C06894D2F820E130E00DC089
:104F50006894D4F8F6CF34FE03C0822F8660D82E32
:104F600020E132E002C028E030E0F801D7FE0FC0B7
:104F700060817181828193810C5F1F4FA5010E9426
:104F80004628C82ECA183D2CE89437F867CF6081B0
:104F9000718190E080E00E5F1F4FF0CF42FC02C0B5
:104FA000839478CF8394839475CF842D867809F485
:104FB00071CFF6CFB70180E290E00E94162883946B
:104FC0008214C0F3512C73CF522C5818821408F459
:104FD0006ECFF8CF842D867809F47BCF8BE241FE2B
:104FE00080E247FC8DE2B70190E071CFB70180E32A
:104FF00090E00E9416289A946CCF8FEF9FEF99CF84
:10500000FC010590615070400110D8F78095909593
:105010008E0F9F1F0895FC01615070400190011098
:10502000D8F7809590958E0F9F1F08950F931F932B
:10503000CF93DF93182F092FEB018B8181FD09C0DE
:105040001FEF0FEF812F902FDF91CF911F910F91C5
:10505000089582FF14C02E813F818C819D81281785
:1050600039073CF4E881F981CF010196998388835F
:1050700010838E819F8101969F838E83E3CFE88585
:10508000F985812F0995892BA1F3DACFFA01AA2797
:10509000283051F1203181F1E8946F936E7F6E5F7B
:1050A0007F4F8F4F9F4FAF4FB1E03ED0B4E03CD029
:1050B000670F781F891F9A1FA11D680F791F8A1F0C
:1050C000911DA11D6A0F711D811D911DA11D20D073
:1050D00009F468943F912AE0269F11243019305D2D
:1050E0003193DEF6CF010895462F4770405D41931E
:1050F000B3E00FD0C9F7F6CF462F4F70405D4A336B
:1051000018F0495D31FD4052419302D0A9F7EACF32
:10511000B4E0A6959795879577956795BA95C9F761
:1051200000976105710508959B01AC010A2E069454
:105130005795479537952795BA95C9F7620F731F0D
:10514000841F951FA01D0895F894FFCF0100010052
:105150000100EF02F302E701FF0209030F03170347
:105160001815A015C019FF1815A115C819FF181595
:10517000AE19FF1815AF19FF1815AE15D516801505
:10518000A8163F15D316001540158D1614152016B8
:105190000015A115C815DA1612158116CF15D916E6
:1051A000F115DB1640152E15A415A619FF000114E4
:1051B0000A6464323200127A000004289610080053
:1051C0000080004000180550048803C002F8013038
:1051D00001680000000000AF191019301BE6180923
:1051E00019F618E71800000000DC1AB41A301B2F5B
:1051F0001B570F1110470F31323A34350025002567
:105200003032643A253032643A25303264005469D1
:105210006D653A0031322E3435005375204D6F20C4
:10522000547520576520546820467220536100252C
:105230003264004E6F74696669636174696F6E737E
:105240000057686174734170703A0041726520774D
:1052500065206D656574696E6720004D69737365BF
:10526000642043616C6C733A004E6F206D697373F8
:1052700065642063616C6C730052756E6E696E6755
:1052800000506175736564002530326C753A2530C5
:10529000326C753A2530326C75005072657373202C
:1052A00055702F446F776E20746F20657869740095
:1052B00046696E6973682050726F6A656374004353
:1052C000616C6C204D6F6D0053656E6420456D619F
:1052D000696C004275792047726F63657269657306
:1052E0000050726570617265205265706F72740053
:1052F0005461736B733A0050726573732073656CFD
:1053000065637420746F2072657475726E005765E2
:105310006174686572204D656E750054656D7065C9
:1053200072617475726520323820C2B04300556EC8
:105330006B6E6F776E204D656E7500485544005456
:10534000696D65202620446174650053746F707721
:1053500061746368005461736B73005765617468AE
:1053600065720054656D70657261747572650000D8
:107E0000112484B714BE81FFF0D085E080938100F7
:107E100082E08093C00088E18093C10086E0809377
:107E2000C20080E18093C4008EE0C9D0259A86E02C
:107E300020E33CEF91E0309385002093840096BBD3
:107E4000B09BFECF1D9AA8958150A9F7CC24DD24C4
:107E500088248394B5E0AB2EA1E19A2EF3E0BF2EE7
:107E6000A2D0813461F49FD0082FAFD0023811F036
:107E7000013811F484E001C083E08DD089C08234E0
:107E800011F484E103C0853419F485E0A6D080C0E4
:107E9000853579F488D0E82EFF2485D0082F10E0AE
:107EA000102F00270E291F29000F111F8ED06801E7
:107EB0006FC0863521F484E090D080E0DECF843638
:107EC00009F040C070D06FD0082F6DD080E0C81688
:107ED00080E7D80618F4F601B7BEE895C0E0D1E017
:107EE00062D089930C17E1F7F0E0CF16F0E7DF06D8
:107EF00018F0F601B7BEE89568D007B600FCFDCFD4
:107F0000A601A0E0B1E02C9130E011968C91119780
:107F100090E0982F8827822B932B1296FA010C0160
:107F200087BEE89511244E5F5F4FF1E0A038BF0790
:107F300051F7F601A7BEE89507B600FCFDCF97BE46
:107F4000E89526C08437B1F42ED02DD0F82E2BD052
:107F50003CD0F601EF2C8F010F5F1F4F84911BD097
:107F6000EA94F801C1F70894C11CD11CFA94CF0C13
:107F7000D11C0EC0853739F428D08EE10CD085E9AC
:107F80000AD08FE07ACF813511F488E018D01DD067
:107F900080E101D065CF982F8091C00085FFFCCF94
:107FA0009093C60008958091C00087FFFCCF809118
:107FB000C00084FD01C0A8958091C6000895E0E648
:107FC000F0E098E1908380830895EDDF803219F02E
:107FD00088E0F5DFFFCF84E1DECF1F93182FE3DFCA
:107FE0001150E9F7F2DF1F91089580E0E8DFEE27F6
:047FF000FF270994CA
:027FFE00040479
:00000001FF
